:10000000A00A0020C93A0000B7080000971B0000B2
:1000100000000000000000000000000000000000E0
:10002000000000000000000000000000FB1B0000BA
:100030000000000000000000F32F00003B3A000029
:10004000811700009D2C00009F250000000000008B
:10005000AF3A0000BB3A0000B52C0000E53A0000C2
:10006000E73A0000E93A0000EB3A0000ED3A000000
:10007000E5320000EF3A0000F13A0000F33A0000E8
:10008000F53A0000F73A0000F93A0000FB3A0000A8
:10009000FD3A000038B586B004000D00684600BF88
:1000A00054A1182200F01CFC002C01D157489EE0FE
:1000B000002D47D000225421200000F02BFC28689E
:1000C0005349884206D15348E06453486062401E59
:1000D000A06208E05149884234D15E48E0645E483D
:1000E0006062401EA062200029001C2200F0F8FB84
:1000F000687D012802D1012069468873A87D002807
:100100000BD1002069460882287D01281CD10020DF
:100110004873FA208000029018E0012804D1802062
:10012000800069460882EFE7022804D18020400061
:1001300069460882E8E7032804D1C02080006946A8
:100140000882E1E7454852E0A8680290012144484E
:1001500000F092FD0121434800F08EFD0121E06C8A
:1001600000F08AFD6946286800F0A8FF287D002875
:1001700008D1E87D002805D1286801688022520254
:100180000A430260287900022968EA7D002A03D127
:100190000F2202434A6502E00B2202434A65012115
:1001A000200000F089F8002821D100F0EBFF2E4953
:1001B0000A78002A04D101220A7000F0E7FF01E06A
:1001C00000F0E4FF01F02FF8002120001C3001F0C6
:1001D00003F8002801D0254809E000212000203044
:1001E00000F0FAFF002801D0204800E0002007B00E
:1001F00030BD0000050000000000000040420F007C
:10020000050100000000000000000000012000F0D7
:1002100000C000400032040001000C0000C4004097
:1002200070B50400207D012801D11E4870BD150065
:100230000E00200000F002FB002809D11A4B2A0012
:100240003100200000F084FA200000F021FB606CF7
:1002500070BD00000042040001000D00022000F00B
:1002600040810400008204009A060020092000F06A
:1002700070B50400207D012801D10A4870BD150029
:100280000E00200000F0DAFA002809D1064B2A00FF
:100290003100200000F096FA200000F0F9FA606CBE
:1002A00070BD0000082000F0AD0200004430016085
:1002B0000121017370470000F3B581B007003B795D
:1002C00038680022D2438149884200D0F5E00421F9
:1002D000002B09D0012B01D1100014E0022B01D119
:1002E000022010E0032B01D108000CE0042B01D107
:1002F000012008E0052B01D1100004E0062B01D1FC
:10030000100000E01000002B09D0012B01D11600D5
:1003100014E0022B01D1022610E0032B01D10E00C4
:100320000CE0042B01D1012608E0052B01D11600B9
:1003300004E0062B01D1160000E01600002B01D1CD
:10034000009116E0012B01D1009212E0022B01D0A6
:10035000032B02D1022400940BE0042B01D0052BC7
:1003600002D10124009404E0062B01D1009100E0A9
:100370000092002B12D0012B01D111000EE0022BB4
:1003800001D0032B01D1022108E0042B01D0052B61
:1003900001D1012102E0062B00D01100F963002BEE
:1003A00001D10A2118E0012B01D1110014E0022B28
:1003B00001D10B2110E0032B01D10D210CE0042B06
:1003C00001D1072108E0052B01D1110004E0062B23
:1003D00001D1110000E01100002B01D10B2518E024
:1003E000012B01D1150014E0022B01D10A2510E0E8
:1003F000032B01D10C250CE0042B01D1082508E0CA
:10040000052B01D1150004E0062B01D1150000E0F9
:100410001500002B01D10C2416E0012B01D1140092
:1004200012E0022B01D109240EE0032B01D10F248D
:100430000AE0042B01D0052B01D10D2404E0062B8A
:1004400001D10C2400E01400002B01D10D2210E09A
:10045000012B0ED0022B01D108220AE0032B03D07E
:10046000042B01D0052B01D10E2202E0062B00D176
:100470000D223A646A46127A002A00D123E13A7DBD
:10048000002A00D0F4E000230422C0B201F0A1F859
:100490000023012229003000C0B201F09AF8B87D93
:1004A000002802D0012800D0D0E00023042221003F
:1004B0000098C0B201F08DF8CFE09949884200D091
:1004C000C2E0002B04D1100017E000BF00C00040C4
:1004D000012B01D1100010E0022B01D103200CE010
:1004E000032B01D1100008E0042B01D1100004E01F
:1004F000052B01D1022000E01000002B01D11600D5
:1005000014E0012B01D1160010E0022B01D10326CB
:100510000CE0032B01D1160008E0042B01D11600DA
:1005200004E0052B01D1022600E01600002B01D1CA
:10053000009215E0012B01D1009211E0022B01D1B4
:1005400000920DE0032B01D1009209E0042B01D1B0
:10055000009205E0052B02D10221009100E00092FB
:10056000002B01D1110014E0012B01D1110010E08A
:10057000022B01D111000CE0032B01D1110008E086
:10058000042B01D1110004E0052B01D1022100E070
:100590001100F963002B01D1110014E0012B01D1EE
:1005A000110010E0022B01D107210CE0032B01D137
:1005B000110008E0042B01D1110004E0052B01D14A
:1005C000012100E01100002B01D1150014E0012BE6
:1005D00001D1150010E0022B01D106250CE0032B00
:1005E00001D1150008E0042B01D1150004E0052B12
:1005F00001D1022500E01500002B01D1140014E008
:10060000012B01D1140010E0022B01D114000CE0E9
:10061000032B01D1140008E0042B01D1140004E0E5
:10062000052B01D1032400E01400002B0AD0012B7C
:1006300008D0022B06D0032B04D0042B02D0052BAC
:1006400000D100223A6415E78C48FEBD0123042244
:1006500021000098C0B200F0BCFFF87D00285CD1FA
:1006600001230422396CF86BC0B200F0B2FF54E0F1
:1006700000230122C0B200F0ACFF002304222900B5
:100680003000C0B200F0A5FFB87D002801D00128DD
:1006900007D10023022221000098C0B200F099FF88
:1006A00006E00123022221000098C0B200F091FF71
:1006B000F87D002831D101230222396CF86BC0B2D9
:1006C00000F087FF29E000230222C0B200F081FF82
:1006D0000023022229003000C0B200F07AFFB87D6A
:1006E000002801D0012807D1002302222100009810
:1006F000C0B200F06EFF06E0012302222100009844
:10070000C0B200F066FFF87D002806D100231A462B
:10071000396CF86BC0B200F05CFF0020FEBD000039
:1007200000C4004038B5140000F02CFD0500002086
:10073000606401004822A154A063E36A002B02D048
:10074000626B20009847280000F020FD012032BD98
:10075000F0B585B00400150000205022A054656358
:10076000C02000012268D060E362E268092ABF412C
:10077000FF43FF0F2068092A04D303002433060037
:100780003C3603E003001C330600343604943C4836
:100790000390380002900195012000900A00A16AA0
:1007A000206A00F080FD00200490039002970195DC
:1007B0000090230010333200616AE06900F05CFDB4
:1007C00005B0F0BDF8B586B0040015000020502239
:1007D000A0546563C02000012268D060E362E26833
:1007E000092ABF41FF43FF0F2068092A04D30300F1
:1007F000243306003C3603E003001C330600343685
:10080000059104941E480390380002900195002041
:10081000009022003032A16A206A00F044FD0020DE
:10082000049003900297019501200090059B3200EF
:10083000616AE06900F020FD07B0F0BD10B504006A
:1008400001D1104810BD002904D0002A02D00E4862
:10085000824201DB094810BD00F094FC4821615C34
:10086000002903D000F092FC084810BD0121482265
:10087000A15400F08BFC002010BD0000022000F00D
:1008800025070000012000F001040000032000F013
:1008900010B50400002000F0EBFE002806D0502028
:1008A000205C002806D100F06BFFF8E75020205CA8
:1008B0000028FBD010BDFEE7124207D08B0706D000
:1008C0000B78491C0370401C521EF7D870478307F1
:1008D00006D00B78491C0370401C521EF9D170479A
:1008E00070B4103A03D378C9103A78C0FBD25307DA
:1008F00001D318C918C001D508C908C0D20704D34C
:100900000B880380891C801C002A01D50B7803709A
:1009100070BC70471206130A1A43130C1A4300BF27
:10092000130030B414001500103902D310393CC044
:10093000FCD2490700D30CC000D504C0890002D303
:100940000280801C002900D5027030BC7047000076
:100950000022E5E7010000208022120601E0401C91
:1009600052081142FBD0704730B403001C680125C7
:1009700028008840844315408D4025431D6030BCCD
:1009800070470268CA401000C007C00F704710B51A
:100990001F24FFF7DFFF201A10BD74480068000E07
:1009A000704780B570480068E021C900014021D03F
:1009B0008020400081421BD04000814210D0C020E6
:1009C0008000814204D0E020C000814214D015E0B4
:1009D000FFF7E3FF132801DB654802BD654802BD50
:1009E000FFF7DBFF132801DB634802BD634802BD4C
:1009F000634802BD634802BD634802BD002002BDDA
:100A000080B5624800F0D6F9072804D0092805D13E
:100A100001F007F802BDFFF7C4FF02BD002002BDD0
:100A20005B490A685207520F5A4B984201D2002282
:100A300003E05A4B984200D20122086807239843EA
:100A400002430A60704738B5534C2068451EAD41DB
:100A5000ED43ED0F5248206000F0E1FF0021FFF769
:100A6000DFFF002D01D00020206031BD38B54A4C99
:100A70002268551EAD41ED43ED0F494A2260FFF754
:100A8000CFFF002D01D00020206031BD38B505001A
:100A9000002400F08FF92900424A914206D0424AD0
:100AA000914208D0414A91420BD00FE04048006883
:100AB0008007800F0AE03E48006880088007800FAA
:100AC00004E03B48006800098007800F002811D02F
:100AD000022807D002D3032808D01DE000F0E4FF6D
:100AE000040019E000F0E6FF040015E000F08CFFC0
:100AF000440811E02B48854202D02B498D420BD18E
:100B00002B490968854201D1102000E01420C14022
:100B100002D000F0CCFF0400200032BD25494A6815
:100B2000D20702D40A680240FCD1704780B522483F
:100B300000F040F9022806D0032807D009280BD07E
:100B40000A2806D00BE000F0B5FF02BD00F0ACFFB4
:100B500002BD4848006802BD00F063FF02BD0020EE
:100B600002BD70477047000014800C40FC81E00F0C
:100B7000804F120040420F0040B56400C0CF6A00B1
:100B8000C0D8A700809FD500406F400106000E002E
:100B900004000C400124F4003C000C400148E80132
:100BA000711B000002001C0003001E000400200056
:100BB00028800C4050800C400733240010B50C00F6
:100BC00001110907090F012908D0042916D00729A6
:100BD0001ED008292DD009293BD010BDFFF733FFC7
:100BE00071480168A84A0A40641EA10311430160CC
:100BF00000F00AFF0021FFF739FF10BD2000FFF7CA
:100C0000C6FE69498A680F239A431043886010BD65
:100C1000FFF719FF2000FFF7BAFE63494A680F2368
:100C20009A431043486000F0EFFE0021FFF71EFFDB
:100C300010BD5E4988421BD10420FFF76FFF2000E2
:100C4000FFF7A5FE58498A6E0F239A431043886622
:100C500010BD574988420BD14020FFF75FFF2000AD
:100C6000FFF795FE50490A6F03239A431043086724
:100C700010BD00004000002070B50E000021020AE7
:100C80001207120F521E092A17D801A39B5C9F441A
:100C90002A2E08282836404A28547C4A1400383422
:100CA000000BC506ED0E002902D00800FFF736FF45
:100CB000320029002000FFF757FE70BD734CEFE7AC
:100CC000724A14003C34EBE770490C0050340121A7
:100CD000E6E76E490C0058341021E1E76B490C003F
:100CE0005C34890DDCE7694A14007034D8E70000F1
:100CF00080B5F8218903014023D080208002814201
:100D00002AD0400081421FD0E0200003814240D021
:100D10008020400381423FD090204003814222D076
:100D2000C020400381422BD0E0204003814216D0F6
:100D3000F020400381421FD09020800381422ED0BA
:100D400030E000F06EFE02BD00F06BFE4F49096816
:100D50000907090FC84002BD00F056FE02BD801C05
:100D6000FFF794FE02BDA748FFF790FE4749096EC2
:100D70000907090FC84002BDC01CFFF787FE02BD6E
:100D8000A148FFF783FE4149896E8907890FC84052
:100D900002BDFFF735FE02BDFFF703FE02BDFFF700
:100DA000C5FE02BD002002BD00800C40800612007E
:100DB0009007180081B0010001200907090F491EA2
:100DC00006295ED801A2525C974400BF08385678C5
:100DD000B68E92008D4840688D4901408020000108
:100DE000814209D04000814235D04000814246D046
:100DF0004003814202D003E0042043E00B2041E0A5
:100E000005203FE081490A689207920F012A22D00B
:100E100002D3032A0FD032D30968C90332D50C207C
:100E200030E00C2279490B681340042B13D0082BB7
:100E300025D00C2B01D1062024E00968C90221D558
:100E400010001FE07149096830220A40102A02D0C0
:100E5000202A14D016E0032014E0072012E06B498A
:100E60004968E022D2020A4001048A4207D04104C4
:100E70008A42F0D081048A4204D10A2002E0022092
:100E800000E0002001B07047FF3FFEFF08800C40EB
:100E9000F8B5030003242000002215001F073F0FB0
:100EA0003E00761E07D0761E012E2DD9B61E60D0CC
:100EB000F61E7BD0F1BD022908D003291AD00429DF
:100EC0001AD005291BD00B291BD0F1BD042410001A
:100ED0000122114600F09EF8FFF7B5FDFFF741FE35
:100EE0006648046000F090FD2946FFF7BFFDFFF75C
:100EF00039FEF1BD0120EBE702200400E8E7012400
:100F0000E6E705200400E3E7012908D0022911D013
:100F1000032916D006291BD00C2920D0F1BD574833
:100F2000022F41681DD1564B0B401A43290411432F
:100F30004160F1BD01221146284600F06BF8022203
:100F4000EDE701221146084600F064F80122E6E7C9
:100F5000012202214B48FFF707FD2200DFE70125B0
:100F6000DDE7494B0B40910019432A050A434260D3
:100F7000F1BD012904D0BCD3032910D008D3F1BDA1
:100F80003E4841683023994312010A434260F1BD53
:100F900001221146284600F03DF80222F0E7012226
:100FA0001146084600F036F80122E9E7022904D08C
:100FB00003290ED00A2918D0F1BD01221146284676
:100FC00000F028F82D48402101608168C90390D4C1
:100FD000FBE701221146084600F01CF82748602173
:100FE00001608168890384D4FBE701221146052052
:100FF00000F010F82148802101608168490300D584
:1010000077E7FAE702001C0003001E0028800C406E
:10101000003C0004052800D9704738B501A31B5CCB
:101020009F4400BF3E3626062E48012002230400BE
:10103000164D00291FD02860002A1DD02100144819
:10104000FFF79FFC002817D1F8E7042008230324AA
:10105000EEE7102020230524EAE740208023072420
:10106000E6E78020400043000924E1E78020C0003B
:1010700043001624DCE72B6031BD000024800C40C7
:10108000FCFFFEFF40800C40F3FFEFFF20800C4090
:101090002C800C4038B5040008001500002802D14F
:1010A0000548FFF725FE401E690000F01DFD000207
:1010B000606131BD000000004081040038B50400CB
:1010C0000D0000F03AF8A87B002802D08020C00074
:1010D00000E0002021681022AA5E10430122024392
:1010E0000A432260287D002802D08020800500E08D
:1010F0000020216808432060A87C002803D0E87CF9
:1011000010210143A165287B8021490101436160D1
:10111000AA6869682000FFF7BDFF687B002801D03E
:101120001020E060687D002804D0206880214902FA
:10113000014321602878E06031BD81B00C49C16075
:10114000002101600B4A426081604161C1640A4A2A
:1011500082644165094A904201D1094B1960816559
:10116000904201D10648C16001B070470000000004
:10117000AA0E000005100000F91F000000C000408A
:1011800050C00040EFF3108072B67047002800D1C5
:1011900062B6704718B4C20018231340FF249C4065
:1011A000E2438901C9B2994003000BD5494B0007BE
:1011B000000F083880088000181803681A4011438F
:1011C000016007E048489B089B00C01803681A406C
:1011D0001143016011BC704738B53F4909780029B7
:1011E00001D13E4832BD040001D13D4832BDFFF778
:1011F000C9FF00210A0000E0521C042A0FDA394B13
:101200009500AD18AD005B191D7C002DF4D1226056
:1012100001221A741960FFF7B9FF002032BDFFF7F1
:10122000B5FF324832BD1CB5FFF7ACFF2A490A783A
:10123000002A03D0FFF7AAFF2D4816BD01220A702D
:10124000FFF7A4FF00242000210006E0254A8300C8
:101250001B189B00D2181174401C0428F6DB0421D3
:101260002046FFF797FF68460470224801906846C1
:1012700000F03AFB204616BDF1B588B00E980F9CE1
:10128000109D119E129F0797069605950494039052
:1012900000200290019300920B00089A014600F092
:1012A00061F809B0F0BDF1B588B00E980F9C109DA3
:1012B000119E129F079706960595049403900020AF
:1012C0000290019300920B00089A012100F04AF865
:1012D00009B0F0BD1CED00E034060020028000F0F3
:1012E000018000F06405002000E400E0048000F0CC
:1012F000038000F00003002084498200121892004D
:101300008B181968002900D1704780B59968491C6D
:1013100099605A681B68984701BDFEB506000F002A
:1013200001247A48B10089198900451828680028E5
:101330000AD0A868401CA8606A68014630002B6883
:101340009847002800D0002439000294E868401E25
:1013500001900020009003460246300000F0E4FABD
:10136000F7BD0000F2B58AB069490C78002C01D1B4
:101370006848C8E01400042C13D2109A002A10D038
:10138000119A002A0DD0149A634DAA4209DA6A46CE
:101390001070684600780390012804D11298002844
:1013A00001D15E48AFE0A0000019800004905748CA
:1013B000049A80180190007C002801D15848A2E0CE
:1013C0006000001980000A1D121802926A46127805
:1013D000002A03D1534A029D2A6002E0524A029D2C
:1013E0002A6000260818866007A831000170169947
:1013F000002902D10399012902D10121417001E0A4
:1014000031004170159F139D08930298099007A918
:10141000200000F020FA05A80AA90978002913D1B4
:10142000002D0CD0390002D13100417009E00129B2
:1014300002D10121417004E00221417001E0032149
:1014400041700321017012E0002D0CD0390002D14F
:101450003100017009E0012902D10121017004E08D
:101460000221017001E003210170032141708770A6
:101470003100C170017105AA0121200000F00FFAAE
:101480000398012804D105AA3146200000F007FA8C
:1014900017981699019A11602449049A8850019866
:1014A000866014980199C8600120A0402049086016
:1014B0001498401E69460978002909D101901198B5
:1014C0000090109B32460121200000F090F919E0B5
:1014D0000AA90978002903901299029109D110995B
:1014E00001910090119B109A3146200000F091F973
:1014F00008E0119901910090129B109A314620004A
:1015000000F087F930460BB0F0BD00006405002004
:1015100034060020028000F001040000018000F089
:10152000078000F0F91200001B130000680500207E
:1015300008300C4030B403001C68012528008840A6
:10154000844315408D4025431D6030BC70470368BF
:101550008B431A430260704701228A403E49C30010
:101560001818800008184261704701228A403A49E1
:10157000C30018188000081802617047F8B51400FD
:101580001F000721082C07D29300984002009940C1
:101590003248FFF7DCFF07E0083A9300984002006A
:1015A00099402F48FFF7D3FF079D069E3A00210080
:1015B0002C48FFF7BFFF320021002B48FFF7BAFF8E
:1015C0002A480121A140C1602A002100FFF7B2FF93
:1015D000F1BDFEB505000C00160009D01846002824
:1015E00003D02800FFF7C1FF02E02800FFF7B4FF97
:1015F00019482900CA0051188900411832000F20EB
:10160000082C6B460CD22700BF001F704B686F463A
:101610003F78B8408343384682401A434A600CE022
:101620002700083FBF001F708B686F463F78B840A7
:101630008343384682401A438A60002E0BD10298B9
:10164000002804D021002800FFF78FFFF7BD2100FC
:101650002800FFF781FFF7BD0060004000610040F7
:1016600004610040086100400C61004010610040CE
:1016700010B50400EFF31080C00713D4200000F071
:10168000A6FA00280ED1200000F086FA04000748D0
:101690000068C005C00D07D0103840B200F07CFAD9
:1016A000844201D3012010BD002010BD04ED00E0F4
:1016B0000121C006C00E81408748016070470121AA
:1016C000C006C00E81408548016070470121C006F8
:1016D000C00E814082480160704730B403001C682E
:1016E000012528008840844315408D4025431D6016
:1016F00030BC7047F9B405017A4C206840191600D7
:1017000001D0050001E066687519C068002800D0A6
:101710000272089E079800280DD0AF68BF0EBF0761
:10172000BF0F032F01D1286005E084463000B84088
:10173000674638182860069800280BD0AF68BF0F9E
:10174000032F01D1686005E084463000B840674649
:10175000381868600120009FB840002B01D020613C
:1017600000E06061002A01D0E06200E0A062AA68A7
:101770006B481040320102431143A960F3BC70472B
:10178000FEB5684F3868F968014001915548006B13
:1017900000900198009D0540002623E001210D42A4
:1017A00018D0504800680A00A240BA602201801890
:1017B000C06800280ED0037A1A00594001720368ED
:1017C000002B07D01100491E8941C943C90F426847
:1017D000200098476D08641C002DDFD1019D009802
:1017E0008543761C012E01DC0024F5E7F7BD3EB5EC
:1017F00004000698079D02950190009313000A00CB
:1018000001212000FFF776FF0120A0406749086012
:1018100037BDF6B583B004000D001F000A9E0B987B
:101820000C990D9A0292019100902B000022032145
:101830002000FFF75FFF02960197049800902B00AD
:10184000012203212000FFF755FF0120A040574946
:10185000086005B0F0BD38B50300224802688C6806
:101860001D015219D46001229A400C78002C01D03D
:10187000026300E0426348685B4C9D0060515B4836
:101880004978002906D05A490A6001221900FFF759
:1018900024FF31BD00221900FFF71FFF31BD30B416
:1018A000544B002901D0196800E0596893781478E6
:1018B000A4071D0725435478A4062C431B06234385
:1018C0001479A4041C43D27892032243000108181F
:1018D000826030BC7047000000E100E080E100E081
:1018E00080E200E008200C4010B5040001214248CD
:1018F000FFF7C2F900F05CF80020FFF7E7FE0020D8
:10190000FFF7D6FE80200006384908603B48616832
:1019100041602178490101220A43026010BD0000A4
:1019200008C0FFFF00300C40FCB40C0008990029EF
:1019300001D0012100E003212500009000012D4C81
:10194000002D02D025682D1801E065682D18079E2E
:10195000069800280DD0AF68BF0EBF07BF0F032F3A
:1019600001D1286005E084463000B8406746381849
:101970002860002B09D0A868870F032F01D16B6066
:1019800003E03000B840181868600120009B9840C0
:10199000002A01D0206100E06061AA681848104068
:1019A000320102431143A960F3BC704728200C4068
:1019B00080B50020FFF783FE0020104908603F2219
:1019C0008A610A628A620A638A6301228A64084918
:1019D00048600C4A0A600100034A02E08B00D050C4
:1019E000491C0629FADB01BD00310C400C300C40CB
:1019F00008300C4008200C400013020004200C406A
:101A000008C0FFFF3F00008080B500F00AF82B49B6
:101A100009680907090FC8402949086002BD29481B
:101A2000704700B52849C86A284A02408020000152
:101A300082420ED04000824209D04000824203D050
:101A40004003824208D009E02148406823E0C000FA
:101A500021E01F4800681EE01A481CE0C868E02228
:101A6000D200024014D0880D82420FD04000824242
:101A70000AD0C0208000824204D0080D824209D1E1
:101A8000144808E0144806E0144804E0144802E052
:101A9000144800E000200968890B4907490F491CD8
:101AA00000F022F800BD7047802000027047FA2045
:101AB00080007047064840687047000004800C4072
:101AC0006C00002000366E0100800C40003C0004D9
:101AD00064000020406F4001809FD500C0D8A7005F
:101AE00040B56400804F12000022030A8B420BD2E3
:101AF00003098B4219D243088B422ED2411A00D2DD
:101B00000146524110467047FF2209023FD012069B
:101B10008B4205D3121209028B4201D31212090221
:101B200003098B4219D300E0090AC3098B4201D390
:101B3000CB01C01A524183098B4201D38B01C01AD9
:101B4000524143098B4201D34B01C01A5241030950
:101B50008B4201D30B01C01A5241C3088B4201D3FF
:101B6000CB00C01A524183088B4201D38B00C01AAC
:101B7000524143088B4201D34B00C01A5241884264
:101B800000D3401A5241CFD201461046704708B5E3
:101B900000F032F808BDFEE70100C800182202403C
:101BA0000B000320002B0AD5104B0907090F083939
:101BB000890889005958D1408909084070470C4963
:101BC0009B089B00C958D1408909084070470949C2
:101BD0000200520992008958C006C00EC1400A0096
:101BE000D207D20F01205040704700001CED00E0EA
:101BF00000E400E000E100E07047FEE780B501216D
:101C00002A4800F060FB00F081FB00F040F808E09B
:101C100000F022FC264800F097FC00F07BFC00F06E
:101C200036F800BF25A000F025FD0028F0D10023E4
:101C30001A461146084600F085FD01BD1FB5040097
:101C400001D11C4817E01C480178002912D000215E
:101C500001706B460A46084600F074FD6946200094
:101C600000F0F0FE6946200000F089FF6946200080
:101C700000F0AEFF002004B010BD80B500210220AE
:101C800000F0A8FD0021012000F0A4FD01BD80B5F9
:101C900000F020FD00F0E0FB054800F055FC00F0EE
:101CA00039FC01BD0120044908707047A51C0000E3
:101CB00010270000019000F09906002007020100A3
:101CC000018CBA8008131D1D2021000000051100A1
:101CD0000100450511020100010511020101020583
:101CE00011020102090511020103000511010100A1
:101CF000050511010101380511010102000511015D
:101D000001032005112201000805112201017F05B0
:101D1000112201020C05112201040E0511220105F8
:101D200023051122010603051110010008051110F9
:101D300001011405111001020005111001030F0526
:101D40001110010421081110040500000000051104
:101D500010010900081110040A000000000511110B
:101D60000100010811110401B42B0000051111013B
:101D7000050008111104062DD42DD40511120100FF
:101D800004061112020105000611120203FFFF05ED
:101D9000111201052005111201060005111201079B
:101DA00000051112010800051112010900051112A8
:101DB000010A00051112010B30051112010C300649
:101DC0001112020D0001051112010F00051112017F
:101DD00010820611120211000805111201130005EC
:101DE000111201142A061112021500000511120128
:101DF0001700051112011800061112021900000542
:101E00001112011B00051112011C00061112021D06
:101E10000000051112011F0005111201200006111A
:101E200012022100000511120123000511120124E4
:101E300000061112022500000511120127000511EC
:101E40001201280006111202290000051112012BAF
:101E500000051112012C00061112022D00000511BF
:101E600012012F000511120130000611120231007B
:101E7000000511120133000511120134000811127E
:101E8000043600000000051130010000051130018A
:101E90000100051130010200051130010300051198
:101EA0003001040005113001050005113001060064
:101EB000051130010700051130010800051130013E
:101EC0000900051130010A00051130010B00051150
:101ED0002001000205112001010005112001020767
:101EE00005112001510805112301002C05112301C2
:101EF000010E05112301020B051123010304051135
:101F00002301040C051123010573051123010603A8
:101F100007112003030186A00811200406018CBAD2
:101F200080071120030A000327051120011801056D
:101F3000112201031D051140010041071140030159
:101F40000E27620611400204276205114001062097
:101F50000511400107FF051120011980051120011D
:101F60001A08071120031B03C000051120011E10D1
:101F7000051120011F10061120022201B1071120B6
:101F80000324012E79061120022700970511200154
:101F90002902051120012B00051120012AC205117B
:101FA00020012C04051120012D23061120022E8072
:101FB00011061120023016970511200132C00511BB
:101FC000200135E005112001381105112001395F8C
:101FD000051120013A5F051120013B800511200108
:101FE0003C02061120023DFFFF051120013F0005C4
:101FF000112001402A05112001410C051120014248
:10200000A40511200143220511200150840511204F
:1020100001458306112002460127051120014802CF
:10202000051120014900051120014B060511200171
:102030004C09051120014D18051120014E401011C9
:10204000210C00FFC4307FF5B5B8DE0517160C0A69
:102050001121060C030015FF00001011210C12FFC6
:10206000C4307FF5B5B8DE0517160C0A1121061E1F
:10207000030015FF00000511200154040511200183
:102080005B40051120015C04051120015507051175
:1020900020015D0B051120015E7805112001200053
:1020A000051120015700051120015F2005110001D5
:1020B00001000511000103200511000104000611B3
:1020C000000205000105110001076005110001086B
:1020D00001051100010A000511500100040511500D
:1020E0000101010511500102000511500103010514
:1020F000115001040205115001050305115001069C
:10210000040511500107050511500108060511507D
:10211000010907051150010A08051150010B0905B5
:102120001150010C0A051150010D0B051150010E43
:102130000C051150010F0D05115001100E05115025
:1021400001110F0511500112100511500113110555
:1021500011500114120511500115130511500116EB
:1021600014051150011715051150011816051150CD
:10217000011917051150011A18051150011B1905F5
:102180001150011C1A051150011D1B051150011E93
:102190001C051150011F1D05115001201E05115075
:1021A00001211F0511500122200511500123210595
:1021B000115001242205115001252305115001263B
:1021C000240511500127250511500128260511501D
:1021D000012927051150012A28051150012B290535
:1021E0001150012C2A051150012D2B051150012EE3
:1021F0002C051150012F2D05115001302E051150C5
:1022000001312F05115001323005115001333105D4
:10221000115001343205115001353305115001368A
:10222000340511500137350511500138360511506C
:10223000013937051150013A38051150013B390574
:102240001150013C3A051150013D3B051150013E32
:102250003C051150013F3D05115001403E05115014
:1022600001413F0511F00100800511F001036000FC
:102270000268CA401000C007C00F704780B5474AC7
:10228000C3001818800010181C30FFF7F1FF02BDC2
:1022900001228A404149C300181880000818426191
:1022A000704701228A403D49C30018188000081871
:1022B000026170471CB5049C0194009313000A004E
:1022C000FFF75CF913BD1CB50400012304220021B3
:1022D0000220FFF77EF90023042202211846FFF7AF
:1022E00078F90123022204211046FFF772F9200039
:1022F0000BD02100042000F0B3FC01200090034625
:10230000002204210220FFF7D5FF13BD80B5244928
:10231000244888600120C875C869FDF7BBFE01BD6F
:1023200080B502210020FFF7BCFF01BD80B502216E
:102330000020FFF7ADFF01BD80B500210220FFF7AF
:10234000A7FF01BD80B500210220FFF7AAFF01BD54
:1023500080B504210220FFF791FFC0B202BD01B594
:10236000012269460E48C069FDF782FF01BD80B5B4
:10237000010001220A48C069FDF752FF01BD80B586
:1023800002000748C069FDF773FF01BD80B5020078
:102390000348C069FDF744FF01BD00000060004034
:1023A0004400002000127A000121C006C00E8140C6
:1023B000A648016070470121C006C00E8140A448B4
:1023C000016070470121C006C00E8140A148016034
:1023D0007047A148016804229143016030BF7047F3
:1023E0009749884205D07549884202D09B49884266
:1023F00001D101207047002070478948704770B5AF
:1024000004000D001600FFF7F8FF280120184663AE
:1024100070BD406A704738B505000C00FFF7E0FF5B
:10242000002C02D00120686031BD0220686031BDFF
:1024300081617047C2688A43C2607047C2681143B5
:10244000C16070470069704738B505000C00FFF7A0
:10245000D4FFEC6131BD0000F0B587B003A800BF28
:1024600080A11022FEF73CFA68460C21FEF770FAB4
:1024700002206946887101216848FEF7FDFB704C17
:1024800067492000FFF7E0FF6A460021200000F0C6
:102490008FFC002603AD3000A870624C03A9684889
:1024A00000F02FFC6048FEF723FC6060AF7801214C
:1024B000B940FFF719FB60607F1CAF70FFB20B2FB4
:1024C00002D25A498842E9D25948FEF711FC01006C
:1024D0005848FFF709FB020060680021002300F064
:1024E000ABFC02000B005448314680185941534A56
:1024F000334600F0BAFCA060267010215048FFF768
:1025000099FF0220FFF75EFF0220FFF74DFF3046E4
:1025100007B0F0BD10B50220FFF74DFF484C102169
:102520002000FFF787FF10212000FFF781FF022026
:10253000FFF748FF00212000FFF76DFF002137481B
:10254000FEF79AFB002010BD38B502003548406800
:102550000021002300F070FC374A002312184B4181
:1025600010001900354A002300F07FFC04000D0024
:1025700008E0401E00F024F82000290031A430CCEF
:1025800024184D41364800218D42F2D801D38442AF
:10259000EFD2200080B200F013F8002032BD10B559
:1025A000274C2000FFF74EFFC00606D51021200063
:1025B000FFF73EFF01201B49087010BD00040140D9
:1025C000F8B5060028D0FEF7DDFD07001C4C200002
:1025D000FFF71FFF134DA9688E4200D3310040184A
:1025E00082B200212000FFF70AFF10212000FFF730
:1025F0001FFF10212000FFF721FF3800FEF7C6FD66
:1026000001E0FFF7E6FE28780028FAD000202870C5
:1026100010212000FFF70EFFF1BD000000020400B2
:10262000FFFF0000880600204081040081841E0016
:102630007000020000B0710B20A1070040420F00A3
:10264000000001401802FFFFFFFFFFFF00E100E074
:1026500080E100E080E200E010ED00E000080140D1
:10266000E9FD000001000000000000000000000083
:102670000000000030B589B0040005AD20780028C6
:1026800025D0641C112820D2002103E02378AB540C
:10269000641C491C0A00D2B28242F7DB6B4601225D
:1026A00005A900F09BFCFF2801D0022010E0FFF7F5
:1026B0004FFE0028E2D101AB00221146084600F08F
:1026C00041F801A880790007D8D5042000E0002057
:1026D00009B030BD80B5FFF7BFFEFFF721FE0A202D
:1026E000FFF732FFFFF722FE6420FFF72DFF00F017
:1026F0006CFCFFF70FFF01BD1CB56B4631241C704D
:10270000587099701000000AD8701A710020587122
:1027100098716946072000F007FC13BDFEB5089CC0
:10272000099D6E46322737707070B1701000000A34
:10273000F07032717371B471F5716946082000F060
:10274000F3FBF7BD3EB51D006C462023237060707F
:10275000A170E2706B4608226946042000F03EFC3E
:10276000002D0FD02078287060786870A078A8704D
:10277000E078E8702079287160796871A079A87193
:10278000E079E87137BD08B43FB56B4611241C7081
:1027900058709970DA7007AA042005E01468121DB9
:1027A0000500EDB25C55401C0C00611E2406F5D1FD
:1027B0006946C0B200F0B8FB04B0029830BC02B069
:1027C000004780B5694634220A704870022000F044
:1027D000ABFB01BD38B50D006C4615212170607052
:1027E0006B4602226946104600F0F8FB002D03D02C
:1027F000207828706078687031BD80B502000B00C9
:102800000021662000F0C0FB01BD80B502000B0076
:102810000021772000F09DFB01BD38B505006C4616
:10282000332020706B4602226946012000F0D6FB5F
:10283000002D03D0207828706078687031BD3EB5D7
:102840000D006C462221217060706B46082269469B
:10285000022000F0C3FB002D11D020782870607892
:102860006870A078A870E078E870207928716079A5
:102870006871A0790002E880E1790843E88037BDFB
:10288000F0B585B0040002A8B3A3E0CBE0C002A875
:10289000418000200500002C01D1AA4820E02379C6
:1028A000012B07D1E3880E00B34203D1237AF6B29D
:1028B000B34207D0012502AB197101005971D980CB
:1028C00002A90872019202A882B069460CC80CC124
:1028D00002680A600CBC2900200000F0C2F8002049
:1028E00005B0F0BD78B585B0040002A897A268CA0B
:1028F00068C00025002C01D192482FE020790028E3
:102900001DD1E08802AA5288904218D1207A02AAEA
:102910001279904213D1607A02AA527990420ED174
:10292000A07A02AA9279904209D1E07A02AAD279D9
:10293000904204D1207B02AA127A904200D0012555
:10294000019102A882B069460CC80CC102680A60F5
:102950000CBC2900200000F084F8002006B070BDF7
:102960003EB582B004000025002C01D1754830E04E
:10297000207901281DD1E08802A94988884218D110
:10298000207A02A90979884213D1607A02A949798B
:1029900088420ED1A07A02A98979884209D1E07AC9
:1029A00002A9C979884204D1207B02A9097A884208
:1029B00000D001250898019002A882B069460CC891
:1029C0000CC102680A600CBC2900200000F049F824
:1029D000002005B030BD0FB581B0002801D15948A5
:1029E00018E0069A6946097A012904D102A94988A2
:1029F000FFF746FF0DE00B46002B03D11100FFF758
:102A000071FF06E0022904D1009202A90EC9FFF766
:102A1000A7FF002005B000BD38B584B004000D004C
:102A2000002C01D147480BE001A8211D0A22FDF727
:102A300043FF009501A80EC82000FFF7CCFF00203F
:102A400005B030BD80B5002801D13E4802BD89786F
:102A5000890604D50268002A01D000219047002091
:102A600002BD0CB4F0B585B004000D00002C01D1FE
:102A7000344862E001A8FFF7D0FE684600790728D5
:102A800001D1314859E0002D4CD00AA800782071BE
:102A90000020E0800AA800792072E18802008918ED
:102AA000E1800AA949796172E188627A8918E18036
:102AB0000AA98F79A772E1883A008918E1800AA9EA
:102AC000CE79E672E18832008918E1800AA90D7A90
:102AD0002573E1882A008918E180009000230D22E7
:102AE00002211220FFF74FFE0AA840790090002330
:102AF000112202211220FFF746FE00970023152223
:102B000002211220FFF73FFE009600231922022126
:102B10001220FFF738FE009500231D22022112200B
:102B2000FFF731FE0D99E088C0B2FFF766FE002284
:102B30003021A07BFFF7E0FD002005B00499F0BC38
:102B400003B00847019000F0019100F00000090077
:102B5000010800000000000001000000000000006B
:102B600000000000E0B5082101910321009100233D
:102B70001A461146007EFFF7D1FD00200EBD1FB59D
:102B8000040001D111481FE08878C00617D56946B6
:102B90000020FFF71FFEE16968460078FFF735FE69
:102BA0006269002A02D00021200090470021022003
:102BB000FFF710FE2000FFF7D5FF002004E0002102
:102BC0000220FFF707FE002004B010BD019000F0C6
:102BD00010B5040001D10A4810BD887800070CD553
:102BE0000320FFF7EEFD00210220FFF7F3FD226A2C
:102BF000002A02D0002120009047002010BD00BF15
:102C0000019000F00121C006C00E81402F480160F4
:102C100070470121C006C00E81402D4801607047F9
:102C20002C49086070472C4908684968084070477B
:102C300001000020202804D2CA0702D4401C490801
:102C4000F8E7704780B50620FFF7E3FF0620FFF79F
:102C5000D9FF0120FFF7DDFF0120FFF7D3FF01BD02
:102C600038B505000C00FEF78DFA1C49AA008C50FF
:102C7000FEF78CFA31BD10B504000CE02000FFF720
:102C8000D7FF012181408C431449820089580A00F2
:102C900001D0C0B28847002CF0D110BD10B5FFF7AD
:102CA000C2FF0F4C04402000FFF7BAFF2000FFF7DF
:102CB000E2FF10BD10B5FFF7B6FF0A4C044020003C
:102CC000FFF7AEFF2000FFF7D6FF10BD00E100E0E8
:102CD00080E200E01C61004010610040F40500202B
:102CE00055550000AAAA00005049884205D0504915
:102CF000884202D04F49884201D10120704700200C
:102D00007047FEB505000C00FFF7EEFF20780028A5
:102D100001D10220686000266E626078002802D02F
:102D20004020029000E00296607A002802D08020C5
:102D3000019000E00196A07A002802D020200090A7
:102D400000E00096E07A002801D0102100E0310078
:102D50002079002802D08022920100E032006079C0
:102D6000002802D080235B0500E03300207B002890
:102D700000D00826A0780706E07800043843A77939
:102D8000BF020743E07900023843277A07430298DD
:102D90003843019F07430098384301430A431343D4
:102DA0001E432E602078002801D001206860F7BD06
:102DB000F8B504000D001600FFF796FFF079002823
:102DC00002D08020800300E00020317A002902D068
:102DD0008021490300E00021727A002A01D01022EC
:102DE00000E00022B37A002B01D0042300E000238E
:102DF00000953578AF0675782D063D43B7783F04CA
:102E00002F43F5782D033D433779BF022F43757962
:102E10002D023D43B6792E43304301430A43134309
:102E20000098000120180363F1BD0000000001407C
:102E3000000401400008014030B4434351435D1891
:102E4000010C0C00130C5C432D1980B2434392B269
:102E500051430024C918644124040B04090C0919C6
:102E60005043C018694130BC7047124224D0994287
:102E700028D970B500251B4202D00C00002109E0C2
:102E80000024012649186441944200D3A41A7641D3
:102E9000F8D33100012601E0764109D200186441DF
:102EA0006D41A41A9D41F7D2A4185D41B619F5D31E
:102EB000300022002B0070BD1B42D8D108B500F0B5
:102EC00097F808BD01D19042D3D202000B00002137
:102ED00000207047F8B507000C003E4E002502E0C8
:102EE000FFF730FA761E3000000412D0FFF724FA04
:102EF0004420FFF734FA6846FFF739FA684600784D
:102F0000FF28EDD1380002D02100FFF73FFAFFF78C
:102F100019FA68460078FF2804D101202E4908706C
:102F2000684605782800F2BD70B505000E002A4CF1
:102F300001E000F044F820780028FAD0FFF7FCF90F
:102F400031002800FFF71BFAFFF7FCF90020207082
:102F500070BDF8B5040017001E001F4D002902D1F6
:102F600004E000F02CF828780028FAD0FFF7E4F904
:102F70002000FFF7F4F931003800FFF707FAFFF7F8
:102F8000E1F900202870F1BDF8B5040017001E001B
:102F9000114D002902D104E000F011F82878002832
:102FA000FAD0FFF7C9F92000FFF7D9F9310038004E
:102FB000FFF7E5F9FFF7C6F900202870F1BD80B5ED
:102FC00000210846FFF786FF02BD00200249087075
:102FD00070470000102700009806002038B5140044
:102FE0001D00FFF7A1FF29002000FFF773FF32BD8E
:102FF0007047FEE70121C006C00E814040480160D5
:1030000070470121C006C00E81403E4801607047F4
:103010003D48006870473D49086070473C490A6870
:1030200082430A6070473A490A6810430860704753
:103030003849C8680968084070477CB50400002515
:103040002E00FEF79FF8042D19DA2B49AA00521919
:10305000D2008918897F002911D06D1CF3E7002C5C
:1030600008D00121244AAB005B19DB00D21891770C
:10307000256000E0214EFEF789F8300076BD042D72
:10308000EDD125490E00F6E738B5914CA07801281E
:1030900001D1002032BD0120A07001468D48FDF70E
:1030A000EBFD02218C48FDF7F3FE8C4D0821280032
:1030B000FDF784FD01212800FDF7DEFD0DA000F0E5
:1030C00041FA0720FFF7AAFF0720FFF7A4FF00F04F
:1030D00051FA0C20FFF795FF0C20FFF78BFF002221
:1030E000A0210548FDF716FC002001002170617049
:1030F000A06032BD0100000000040020041000F0B8
:1031000000E100E080E200E0040008401800084010
:103110001C00084010000840011000F0F0B585B018
:1031200005000C0016001F0000200490042D01D3A0
:10313000664890E0FEF726F803908748A9004919F1
:10314000C90040180290807F002804D10398FEF740
:103150001DF863487FE000963046002805D138000E
:1031600075D00A992800B84771E0FFF751FF0600B3
:1031700002988761009A0023500C0343D203FA207F
:103180000001002180185941FA2252010023FFF763
:103190006CFE029A083203C22200012A11D1009A61
:1031A000FA239B005A43002300920193F422FFF775
:1031B00043FE009A121A029802617A20029948612D
:1031C00005E00022401E9141029A083203C2029893
:1031D000083003C80022401C5141029A03C201205A
:1031E000029908770298C4770A9802990862384CC5
:1031F000207801282BD0A0680021C943884202D042
:10320000A068401CA0606078002826D13002000A27
:1032100060600220FFF7FFFE029803C8814A002386
:10322000994202D802D3904200D3104630180102CE
:10323000090A184600F074F90220FFF7F4FE012095
:103240006070A068002802D0A068401EA0600398AB
:10325000FDF79CFF002005B0F0BDA0680128F0D16B
:103260003D48A9004919C900401802900020029960
:103270000877049D0220FFF7D1FE6068301A000233
:10328000000A7349884200D1002000F067F800F07E
:10329000CBF8002D02D10120029908776D1C300077
:1032A00000F0D8F8FFF7B4FE06006068301A070295
:1032B0003F0A002000F027F96168401A0002000A66
:1032C00061780029BDD0B842D4D3BAE7021000F02B
:1032D0007C0600200023020002001C008006120071
:1032E000031000F0F8B5FDF74DFF0700FFF7A0FE53
:1032F0000400A0088000FFF78EFEA00728D5794CB7
:1033000001202070FFF784FE05000220FFF786FEF3
:103310006068281A0002000A00F020F800F084F823
:10332000280000F097F8FFF773FE05006068281A80
:103330000602360A002000F0E6F86168401A000232
:10334000000A6178002901D0B042DED3002020704D
:103350003800FDF71BFFF1BD00040020FCB500267E
:10336000340007003DE0401A6861F42833D303CDF0
:10337000083D0022401E914103C5083D6869F438AC
:10338000686128E02800083003C80090019110000F
:1033900019000CCD083D801A99412A0008320CCA48
:1033A000FFF763FD00980199801A994103C5083D14
:1033B0002869002868692969D5DD40186861F42802
:1033C00009D303CD083D0022401C514103C5083DEF
:1033D0006869F4386861A869002801D0012068771D
:1033E000641C042C1CDA3E48A1000919C9004518C8
:1033F00030006877287F0128F2D103CD083D3A00DC
:1034000000238B4206D801D3824203D2801A99410D
:1034100003C5E5E7E87F0028B4D130002877DAE774
:10342000F3BD00009BFFFF0010B500240CE02C480A
:10343000A1000919C9004218507F002803D0116A61
:10344000200092699047641C042CF0DB10BD000042
:10345000FFFFFF00F8B505001FA6C0CE0022130035
:1034600010E01F489900C918C9004018017F0129C0
:1034700007D103C8B94204D801D3B04201D2060033
:103480000F005B1C042BECDB164C62700020C04369
:1034900001468F4201D186421DD0134811468F420A
:1034A00003D301D8864200D306462078002803D1F2
:1034B0002802000A606000E065600220FFF7ABFDB3
:1034C000A8190102090A002000F02AF80120607002
:1034D0000220FFF7A8FDF1BDFFFFFFFFFFFFFFFF89
:1034E000000400207C0600209BFFFF0030B4030096
:1034F0001C68012528008840844315408D402543E1
:103500001D6030BC7047002802D0012803D005E0C0
:10351000164800687047154840687047002070479B
:10352000002802D0012803D070471048016070477E
:103530000E48001DFAE780B5020000210C48FFF795
:10354000D5FF01BD0178491E8941C943C90F4278A1
:10355000002A02D00A00022111438078002802D0FC
:103560000800042101430248016070470800084038
:103570000000084080B50020FFF7DDFF0120FFF7C5
:10358000DAFF01BDA0480068000E704780B5FFF764
:10359000F9FF822807DA9D489D4908609D48016827
:1035A0009D4A0A40026001BD80B501219B48FDF79C
:1035B00063FBFFF747FB01BD012099494870704745
:1035C0000020984A162300E0401C010049B205295A
:1035D00006DA59435118097D0129F5D1C0B2704767
:1035E0000520704700208F4A162300E0401C010090
:1035F00049B2052906DA59435118097D0029F5D148
:10360000C0B270470520704730B4020000200300AC
:103610000D0004E01C00E4B2145D00195B1C1C00EA
:10362000E4B2AC42F6D3C0B230BC704781B00022E5
:1036300000916B4602E0815C9954521C042AFADB2B
:10364000009801B0704710B4002303E0CC5CC45470
:103650005B1CDBB21400A342F8DB10BC704730B433
:1036600001000023B24A0400E4B265002C19E40012
:103670001459002C01D0401C00E001230400E4B2E6
:10368000182C01DA1D00EED0002B05D063001B19A9
:10369000DB00D150C0B200E0182030BC7047F0B45D
:1036A00001000022100001231E0037007F1EBF41D1
:1036B000FF0FB24C25682F4006D0012901D11F0011
:1036C00000E01700374008D1401C76000400E4B247
:1036D0001E2CEADB1E20F0BC70472E402660C0B2D4
:1036E000F9E710B4A64A0B00DBB25C00E318DB007C
:1036F000D258824207D0491C0A00D2B2182AF1DB04
:10370000182010BC70470800C0B2FAE7F8B5454F62
:10371000434803214056162148433C186578290048
:103720002000FFF771FF6119491E0978814218D105
:103730002078BA2801D0BC2864D1A01CFFF776FFFE
:103740003749C96888420CD1A61D3000FFF7C9FF70
:103750000500182D1AD13000FFF781FF0500182D44
:1037600001D10020F2BD724869004919C90046180C
:10377000607D552804D18348FFF791FF307103E045
:103780008148FFF78CFF307101207071680040198B
:10379000C00000902078BA2807D1062221000A3103
:1037A0007A48009BC018FFF74EFF1D4C032020569F
:1037B000162148435E4E395CBC2909D10A223900E2
:1037C0000A31091830000C30009BC018FFF73BFF8E
:1037D000032020561621484338186D4D0178491CA6
:1037E0002970E168A970009971180A68AA710979AD
:1037F000A972407CE8720D2068700C212800FFF748
:1038000003FF28730120F2BDFC81E00F05000004D6
:1038100018600C40E4800C40FFFFFFFE00820400B3
:1038200068060020A004002038B58AB001A8242131
:10383000FDF78EF8FFF7AAFE04211120FDF728FB03
:10384000FFF7B2FEFFF720FC524C20001030FFF7CC
:10385000F4FB002800D0FEE7002000904E4B6422CD
:1038600001212069FFF75AFC002800D0FEE74B48F1
:1038700001904B4806904B4808904B48099001A88E
:10388000FEF7BCF9FEF7F9F901A8FFF76BF900257F
:1038900001A8FEF7D3F9A07800281BD02800A0705B
:1038A000FFF78EFEE070FFF731FF012803D13849A2
:1038B00001A8FFF717F83D4803216156162251432E
:1038C000401829000175FFF77BFEE07003202056A9
:1038D0000528E8D160780028DAD028466070E088B2
:1038E0000028D5D020780028D2D101202070284986
:1038F0002089000A48702089887001A8FFF78CF899
:103900002089401C20812A48E1888142C0D0E1887A
:103910000029BDD0E1880818E080B9E7002900D06F
:10392000704780B500211B4A1170FFF71BF901BDDC
:1039300070000020002900D070477FB50124154D8C
:10394000AC7069460020FEF77AFF6846C678FFF73C
:1039500049FE28710420285605280DD0002103E0D7
:10396000104B5B5C5354491C104A16234343D21836
:103970001429F5DB567514757FBD000094060020F0
:103980007000002007800300F87FFC3F76000020D5
:103990000000002068060020B93500001D39000035
:1039A00035390000B4050020B5390000A00400201E
:1039B000FFFF0000002900D0704780B5FFF7D2F864
:1039C00001BD70B40123002413E00168001D1942F9
:1039D00002D04D466D1E49190C60091D121F042AA4
:1039E000FAD20D00960701D50C80AD1C1A4000D00C
:1039F0002C700268001D002AE7D170BC704730B5FA
:103A000001684118446862088A188368E4070DD584
:103A10004C461B190AE00C7864B2491C0D78491C0D
:103A20001D705B1C002C05D5641CF9D19142F2D1AC
:103A30000C3030BD641EF1D5F8E7FEE710B507493C
:103A400079441831064C7C44163404E0081D0A6899
:103A5000891888470100A142F8D110BD0800000074
:103A6000240000005FFFFFFF2C0600007000002014
:103A7000000000008BFFFFFF8600000074000000C4
:103A80000000002000F00DF8002801D0FFF7D6FF5D
:103A900000BF00BF002000BF00BFFFF7C5FE00F061
:103AA00002F80120704780B500F002F801BDFEE782
:103AB0000746384600F002F8FBE7FEE7202109033D
:103AC00026311820ABBEF9E701488047014800477E
:103AD000A71A0000D93A000000BF00BF00BF00BF16
:103AE000FFF7D0FFFEE7FEE7FEE7FEE7FEE7FEE7B3
:103AF000FEE7FEE7FEE7FEE7FEE7FEE7FEE70C1265
:103B000034560C9ABCDEF0123456789AF0C5DC00BC
:103B1000076CDC0200C4004005FD000440420F00B9
:103B200008F8000001FA000F1005002000366E01B1
:083B300000800000809FD50019
:0400000500003AD9E4
:00000001FF
